:0600000002006B02071D67
:03000B00020C16CE
:0300130002077071
:01001B0032B2
:030023000206854D
:03002B000213AC11
:01003300329A
:03003B000207C3F6
:030043000206466C
:01004B003282
:030053000206D1D1
:01005B003272
:030063000213AADB
:0300660002081776
:02006900E4733E
:0D006B0075813C121932E5826003020066C7
:100078007923E94400601B7A01901B0A784E75A029
:1000880001E493F2A308B8000205A0D9F4DAF275E6
:02009800A0FFC7
:06009A00E478FFF6D8FD3A
:1000A0007800E84400600A799475A000E4F309D868
:1000B000FC78BAE84400600C7901900094E4F0A365
:0400C000D8FCD9FA95
:0E00C4007808E4F608F608F608F6780C7600E0
:0200D200C20268
:0200D400C20464
:0200D600C20561
:0300D800020066BD
:1000DC00121496E58260F9900064E4F5F0120CD3EA
:1000EC00901A2375F0801208AB9014CF1209FE9071
:1000FC001A3E75F0801208AB9014CF1209FE75826F
:10010C00020201DF1202E81205EAE582603F90016B
:10011C0051E0703E900150E004F09001517401F0F8
:10012C00901A5175F0801208AB900150E0FF7E00E0
:10013C007D007C008F828E838DF0EC12086B901A00
:10014C006175F0801208AB9014CF0209FE9001513A
:03015C00E4F022AA
:10016000E5C35407FF9000BAF01FC2D575F002EF47
:1001700030E704B2D5F404A430D50AF42401C5F064
:10018000F43400C5F02494F582740035F0F583AEA4
:10019000C4AFC5EEF0EFA3F09000BAE02401F0E0A8
:1001A00024F950069000BA7401F09000BAE0FF14F0
:1001B000FE8EF005F07E017D008006EE2EFEED3312
:1001C000FDD5F0F7900153E07B005206EB5205EEAF
:1001D0004D60C574104FF5C3900152E004F022E564
:1001E000829000BBF0E0FF543F700122900153EF7A
:1001F000F0EF30E0065393FE5392FEEF30E10653EA
:1002000093FD5392FDEF30E2065393EF5392EFEFDD
:1002100030E3065393DF5392DFEF30E4065393BF8E
:100220005392BFEF30E50653937F53927F9000B314
:100230007405F09000B47402F09000B5740AF09068
:1002400000B603F09000B77464F09000B87450F0FA
:100250007E607F01900158EEF0EFA3F07F00BF06B3
:1002600000504B8FF005F07D017E008006ED2DFDE6
:10027000EE33FED5F0F7900153E0FC7B005205EB26
:100280005206ED4E60258F06EE044410F5C3E5C31B
:1002900030E7FBEF75F002A424A0F582740035F07E
:1002A000F583ADC4AEC5EDF0EEA3F00F80B07F00D6
:1002B000BF060050308FF005F07D017E008006ED16
:1002C0002DFDEE33FED5F0F7900153E0FC7B00529C
:1002D00005EB5206ED4E600A8F06EE044410F5C39E
:1002E00080030F80CBD2E922900154E0FF900152AD
:1002F000E0C39FFFFEC374808EF063F08095F040F2
:10030000030205E3753A00AC3A7D00EFFA3395E05D
:10031000FBC3EC9AED64808BF063F08095F04003B2
:100320000205E3900155E0FDFC8CF005F0740180BE
:100330000225E0D5F0FBFC9000BCF0900153E05C9E
:1003400070030205A5A2AFE433FCC2AFED75F00265
:10035000A42494F582740035F0F583E0FBA3E0FD5E
:100360009000BDEBF0EDA3F0EC6002D2AFC00790BF
:100370000155E075F002A424A0FC740035F0FD8C5A
:10038000828D83E0FAA3E0FB9000BDE0F8A3E0F9E2
:10039000E8C39AFAE99BFB9000BFEAF0EBA3F09068
:1003A0000157E0F539900156E0FFB539028005D0DC
:1003B0000702053E8A3B8B3C9000B3E0F539AE392D
:1003C0007F00C3E53B9EE53C64808FF063F0809541
:1003D000F0D007502AC007AE397F00C3E49EFEE488
:1003E0009FFFC3EE9AEF64808BF063F08095F0D0AE
:1003F00007500C8C828D83E8F0E9A3F002053E9053
:1004000000BFE0FDA3E0FEC3E49D74808EF063F0C6
:100410008095F040030204AB9000B2E0FE9000BC77
:10042000E0FD5E606C900155E0FC24ACF582E434A4
:1004300000F583E0FB0B9000C1EBF09000B5E0FA13
:10044000C3EB9A4034C0079000C1E4F0EC75F002B1
:10045000A424A0FB740035F0FC8B828C83E0F9A30C
:10046000E0FA9000B4E0F87F0029F9EF3AFA8B82C5
:100470008C83E9F0EAA3F0D007900155E024ACFCAE
:10048000E43400FB9000C1E0FA8C828B83F002051B
:100490003E9000B2ED4EF0900155E0FE24ACF582A6
:1004A000E43400F5837401F002053E9000B2E0FEF2
:1004B0009000BCE0FD5E706D900155E0FC24ACF551
:1004C00082E43400F583E0FB0B9000C1EBF0900078
:1004D000B5E0FAC3EB9A4036C0079000C1E4F0ECF7
:1004E00075F002A424A0FB740035F0FC8B828C8391
:1004F000E0F9A3E0FA9000B4E0F87F00E9C398F9CE
:10050000EA9FFA8B828C83E9F0EAA3F0D00790018E
:1005100055E024ACFCE43400FB9000C1E0FA8C828E
:100520008B83F08019EDF4FD9000B25EF0900155E0
:10053000E0FE24ACF582E43400F5837401F0900011
:10054000B9E0FE9000BCE0FD5E602F9000BFE0FBD4
:10055000A3E0FCC3E49BFBE49CFC9000B8E0F97AC8
:1005600000C3EB99EC64808AF063F08095F050351D
:10057000EDF4FC9000B95EF0802B9000BFE0FBA38F
:10058000E0FCC3E49BFBE49CFC9000B7E0F97A003C
:10059000C3E99BEA64808CF063F08095F05006908C
:1005A00000B9ED4EF0900154E02401F0900155E0C7
:1005B0002401F0E0FEBE06004024900155E4F090D6
:1005C0000157E0FE900156E0FDEEB5050A9000B639
:1005D000E0FE9001572DF0900156E02401F0053A1D
:1005E000020307900156E0F582229000B9E0F582FF
:1005F00022E5829000C2F0E09000B3F022E5829004
:1006000000C3F0E09000B4F022E5829000C4F0E076
:100610009000B5F022E5829000C5F0E09000B6F0C1
:1006200022E5829000C6F0E09000B7F022E58290CB
:1006300000C7F0E09000B8F022900158E4F0A3F079
:05064000F5C3C2E92230
:10064600C021C0E0C0F0C082C083C007C006C0059C
:10065600C004C003C002C001C000C0D075D00012E3
:100666001282D0D0D000D001D002D003D004D00561
:10067600D006D007D083D082D0F0D0E0D02132C0CF
:1006860021C0E0C0F0C082C083C007C006C005C05C
:1006960004C003C002C001C000C0D075D0003098AD
:1006A60005121816C298309905121856C299D0D05C
:1006B600D000D001D002D003D004D005D006D00798
:1006C600D083D082D0F0D0E0D02132C021C0E0C0AB
:1006D600F0C082C083C007C006C005C004C003C006
:1006E60002C001C000C0D075D00030C0051218A4E9
:1006F600C2C030C1051218E4C2C1D0D0D000D001AA
:10070600D002D003D004D005D006D007D083D08243
:10071600D0F0D0E0D02132C021C0E0C0F0C082C00D
:1007260083C007C006C005C004C003C002C001C024
:1007360000C0D075D000900165E0FEA3E0FFC007C1
:10074600C0068E828F83120069D006D007D0D0D023
:1007560000D001D002D003D004D005D006D007D0F7
:1007660083D082D0F0D0E0D02132C021C0E0C0F0EA
:10077600C082C083C007C006C005C004C003C00253
:10078600C001C000C0D075D000900167E0FEA3E0B4
:10079600FFC007C0068E828F83120069D006D0077D
:1007A600D0D0D000D001D002D003D004D005D006DE
:1007B600D007D083D082D0F0D0E0D02132C021C083
:1007C600E0C0F0C082C083C007C006C005C004C038
:1007D60003C002C001C000C0D075D000900158E02F
:1007E600FEA3E04E600E900158E0F8A3E0F5838882
:1007F60082120069D0D0D000D001D002D003D0043C
:10080600D005D006D007D083D082D0F0D0E0D0215A
:1008160032120DBF1200DC1201101214A680F875F8
:030826008200222B
:10082A0022AC82AD83AEF0FF9000D6ECF0EDA3F0DF
:10083A00EEA3F0EFA3F09014CF0209D1AC82AD83FE
:10084A00AEF0FF9000C8E0FB900100ECF0EDA3F0E1
:10085A00EEA3F0EFA3F0900104EBF09014CF020B9B
:10086A001EAC82AD83AEF0FF9000D2ECF0EDA3F0A7
:10087A00EEA3F0EFA3F09014CF0209A4AC82AD83EB
:10088A00AEF0FF9000C9E0FB900100ECF0EDA3F0A0
:10089A00EEA3F0EFA3F0900104EBF09014CF020B5B
:1008AA001EAD82AE83AFF09000CFEDF0EEA3F0EF75
:1008BA00A3F09014CF020942AD82AE83AFF090004C
:1008CA00CAE0FC9000CBEDF0EEA3F0EFA3F09000AD
:0908DA00CEECF09014CF0208E40A
:1008E400AE82AF839000CBE0FBA3E0FCA3E0FD7AF3
:1008F400009000CEE0F9890019E8603F8B828C8378
:100904008DF01217FAF8A3AB82AC83C007C006C0FF
:1009140005C004C003C002C0011209228007C0063A
:10092400C007888222A882D001D002D003D004D08C
:1009340005D006D007E860030A80BB8A8222AE8213
:10094400AF839000CFE0FBA3E0FCA3E0FD9000CFD9
:10095400E0F5F0A3E045F07003F582227A008B8283
:100964008C838DF01217FAF9A3AB82AC83E9F8609B
:100974002CC007C006C005C004C003C0021209860B
:100984008007C006C007888222A982D002D003D083
:1009940004D005D006D007E960030A80C18A822208
:1009A400AE82AF839000D2E0FAA3E0FBA3E0FCA305
:1009B400E0FD9000DAEAF0EBA3F0ECA3F0EDA3F095
:1009C4009000DE740AF08E828F83020A35AE82AF05
:1009D400839000D6E0FAA3E0FBA3E0FCA3E0FD9043
:1009E4000100EAF0EBA3F0ECA3F0EDA3F090010416
:1009F400740AF08E828F83020B1EAE82AF83C0070F
:100A0400C006120A0B8008C006C00775820D22AD0D
:100A140082D006D007C007C005120A228008C0068B
:100A2400C00775820A22AE82D005D007EE2DF5826A
:100A3400228582228583239000FFE4F09000DEE08B
:100A4400FDBD020050069000DE740AF09000DEE066
:100A5400F5247BFF7C009000DAE0F525A3E0F52681
:100A6400A3E0F527A3E0F528852429752A00752B32
:100A740000752C00C004C003C029C02AC02BC02CA0
:100A84008525828526838527F0E528121636A882D7
:100A9400E58124FCF581C000C029C02AC02BC02CEC
:100AA4008525828526838527F0E5281216F8AA82F3
:100AB400AD83AEF0FFE58124FCF581D000D003D0F6
:100AC400049000DAEAF0EDA3F0EEA3F0EFA3F01B3C
:100AD400BBFF011C8B068C07B80A005008880574FC
:100AE400302DFD8004743728FD8E828F83EDF090C5
:100AF40000DAE0F5F0A3E042F0A3E042F0A3E04521
:100B0400F06003020A5A9000CFEBF0ECA3F0E4A3E8
:100B1400F085228285238302094285822D85832ED6
:100B2400900104E0FD701B900100E0F9A3E0FAA33A
:100B3400E0FBA3E0FC120B3E8007C02DC02E89828F
:100B44002222BD0A028003020BEB900100E0F9A30C
:100B5400E0FAA3E0FBA3E0FC30E76FC004C003C0ED
:100B640002C001120B6C8008C02DC02E75822D228C
:100B7400A882D001D002D003D004882F900100C3F2
:100B8400E499F0E49AA3F0E49BA3F0E49CA3F0902E
:100B94000100E0F530A3E0F531A3E0F532A3E0F580
:100BA400339000DAE530F0E531A3F0E532A3F0E567
:100BB40033A3F09000DE740AF0852D82852E831213
:100BC4000A35AF82E52F2FF582229000DAE9F0EAA8
:100BD400A3F0EBA3F0ECA3F09000DE740AF0852DF3
:100BE40082852E83020A35900100E0FBA3E0FCA37A
:100BF400E0FEA3E0FF9000DAEBF0ECA3F0EEA3F04C
:100C0400EFA3F09000DEEDF0852D82852E83020A9D
:010C140035AA
:100C1600C0D075D00808B8000D09B900090ABA0095
:100C2600050BBB00010CD0D032A2AFC2AFA808A9F9
:100C360009AA0AAB0BAC8A8588F092AF30F512741C
:100C4600012C600D08B8000909B900050ABA0001AF
:100C56000BC3EC9406FCECC313FC75F07DE8A4F81A
:100C6600ADF075F07DE9A42DF9E435F0FD75F07D64
:100C7600EAA42DFAE435F0FD75F07DEBA42DFB7D9D
:100C860000EC28F582E93DF583EA3DF5F0EB3D22DF
:100C9600A2AFC2AFA808A909AA0AAB0BAC0C92AFC7
:100CA60075F020E8A4A8F075F020E9A428F582A83C
:100CB600F075F020EAA428F583A8F075F020EBA4DF
:100CC60028F9A8F075F020ECA42889F02285821076
:100CD60085831185F012F513120C2F8582148583F6
:100CE6001585F016F517E5104511451245137001E7
:100CF60022A810A911AA12AB1385141885151985F7
:100D0600161A85171BE8494A4B60DBC003C002C0B0
:100D160001C000120C2FAC82AD83AEF0FFD000D024
:100D260001D002D003ECC39518FCED9519FDEE95A4
:100D36001AFEEF951BFFC3EC94E8ED9403EE9400C6
:100D4600EF940040A118B8FF0919B9FF051ABAFFB8
:100D5600011B881089118A128B1374E82518F5185F
:100D660074033519F519E4351AF51AE4351BF51B24
:100D7600851814851915851A16851B178087AE8266
:100D8600AF83C374019EE49F40022200C374029E97
:100D9600FE74009FFF00BE0005BF00020022000097
:100DA6000000000000000000000000000000000E2F
:100DB600BE00EB0FBF00ED002275A15575A1AA7408
:100DC600F855B94406F5B975A100901388120D843B
:100DD60012135712138112137075DD0075D3007547
:100DE600D500759E5D759D0074F055894402F589A0
:0F0DF60053C9EF758C06C28DD2A9D28CD2AF2211
:100E0600AFDBBF080280030211C6900007E0FE7F39
:100E160000900006E0FD7C004FF534EC4EF5357F82
:100E260000900001E0F536900000E0FE546060534B
:100E3600900000E0FE5306607D00BE2005BD000266
:100E4600800BBE4039BD00367FFF0211C87420B545
:100E560036030211C87421B5360280077422B536EE
:100E660018800C1213FBAD82AE838D070211C8C029
:100E76000712142AD0070211C87FFF0211C87FFF8C
:100E86000211C8E53624F450030211C2E536240BDC
:100E960083F582E536241083F583E473A4D2C292E7
:100EA600C29CBAC2A9C6C8C8110F1110110F0E11E3
:100EB6000F0F1111900003E0FEBE0102800ABE0270
:100EC60002800FBE0360801475376875381A7F126A
:100ED600805675377A75381A7F46804C900002E046
:100EE600FE24FB4036EE2E900EF1738008800E80B5
:100EF60014801A80207537C075381A801E7537FC25
:100F060075381A80167537D075381A800E7537C43D
:100F160075381A80067537E675381A85378285382A
:100F260083E493FF80027FFFBFFF030211C88F0592
:100F36007E00C3ED9534EE953550048D348E35AD77
:100F460034AE35C3ED9408EE9400920040067B085B
:100F56007C008004AB34AC358B077C00C3EC9F501F
:100F6600198C027B00EC2537F582E43538F583E4ED
:100F760093F98A828B83F00C80E28F037C00EDC3A9
:100F86009BFDEE9CFE8D348E35EF2537F537E43527
:100F960038F5380211C8900002E0FE8E347535002F
:100FA6000211C8900105E0900000F0AD34AE35C3E3
:100FB600ED9401EE940050030211C87F010211C89E
:100FC600900002E0FE900105F00211C8900000E0DA
:100FD600541F702F900003E0FD7E00900002E0FC9D
:100FE6007B004206EB4205BE0114BD0011901A813A
:100FF600E493FE30E5030211C87FFF0211C87FFFAC
:101006000211C8900000E0FE53061F7D00BE027765
:10101600BD0074900004E0FEBE0102805FBE0202C5
:101026008049BE03028033BE0402801DBE81028059
:1010360040BE8202802ABE83028014BE844474BCF1
:1010460055DE4402F5DE0211C853DE730211C87480
:10105600BC55D64402F5D60211C853D6730211C840
:1010660074BC55D44402F5D40211C853D47302118A
:10107600C874BC55D24402F5D20211C853D27302C9
:1010860011C87FFF0211C87FFF0211C8900000E05F
:10109600541F702F900003E0FD7E00900002E0FCDC
:1010A6007B004206EB4205BE0114BD0011901A8179
:1010B600E493FE30E5030211C87FFF0211C87FFFEB
:1010C6000211C8900000E0FE53061F7D00BE020517
:1010D600BD000280030211A0900003E0FD7E009097
:1010E6000002E0FC7B004206EB4205EE4D60030287
:1010F600119C900005E0FD7E00900004E0FC7B0062
:101106004206EB4205BE0106BD0003021190BE0277
:1011160005BD00028060BE0305BD00028044BE041A
:1011260005BD00028028BE8105BD00028052BE8238
:1011360005BD00028036BE8305BD0002801ABE844E
:1011460051BD004E74BF55DE4403F5DE8074747FD6
:1011560055DE440CF5DE806A74BF55D64403F5D6D9
:101166008060747F55D6440CF5D6805674BF55D42E
:101176004403F5D4804C747F55D4440CF5D4804296
:1011860074BF55D24403F5D28038747F55D2440CCF
:10119600F5D27FFF802C7FFF80287FFF8024900080
:1011A60000E4F0900001F0AD34AE35C3ED9402EEEC
:1011B600940040047F02800AAF3480067FFF8002DD
:1011C6007FFFBFFF077536FF75DCCF22EF24F740A0
:1011D600068FDD75DCC02275DD0075DCC022740566
:1011E600B53602805D7406B53666AE34AF35C3EEED
:1011F6009408EF9400920140067C087D008004ACC0
:1012060034AD357D00C3ED9C50198D027B00ED2574
:1012160037F582E43538F583E493F98A828B83F0D7
:101226000D80E28C037D00EEC39BFEEF9DFF8E34A6
:101236008F35EC2537F537E43538F5388CDD63DC4A
:101246004022E5E35480FFE5344FF5E375DC0222E6
:1012560075DD0075DC02227420B5360D30DE101205
:1012660013B675DD0085DCDC2275DD0043DC022269
:1012760075D30074FC55D24402F5D22220D903025C
:10128600132DE5D9540FFFADD95305307E00BD00AF
:1012960005BE0002801CBD1005BE00028036BD20C2
:1012A60005BE00028043BD3006BE000302131302D2
:1012B600132BEF24FB500302132BEF2F9012C67350
:1012C600800880618009805D805B12125D80561205
:1012D60016188051EF24FB404CEF2F9012E57380D7
:1012E6004480428040803E803CEF24FB4037EF2F15
:1012F6009012FA738008800B800E802980271211C5
:10130600E48022121276801D12160A8018EF24FB42
:101316004013EF2F90131E73800880098007800505
:101326008003120E06C2D930D81A75DC0275D212A5
:1013360075D41275E300C2DAC2D9C2D8900105E4A9
:10134600F01213AE10DA0122E5DA20E20375D8FFB7
:101356002275E20053E27F43E22975E30053E2BFC0
:1013660053D1FB75D18043D1012243E10443E1020D
:1013760043E10143D81FD2EAD2AF227E007F008E1E
:10138600EC8FED7E0A7F008EEE8FEF7E147F008E4F
:10139600E48FE575EB0C75D21275D41275EA4075BB
:0313A600DC022244
:0113AA003210
:0113AC00320E
:1013AE00900161E4F0C202227F00C3E5DB94079254
:1013BE000340067D077E008004ADDB7E008F037C3C
:1013CE0000C3EB9DEC64808EF063F08095F0501CB2
:1013DE00EF245AFDE43401FEEF2400F582E43400DC
:1013EE00F583E0FC8D828E83F00F80BE227F008F0E
:1013FE00057E00C3ED9407EE9400501CEF2400FD13
:10140E00E43400FEEF245AF582E43401F583E0FC67
:10141E008D828E83F00F80D790000722900002E01D
:10142E00FF900163F0E020E03390015AE0FCA3E06E
:10143E00FDA3E0FEA3E0FFBCB022BD041FBE001C56
:10144E00BF001975E200C2AF75890090C350120D2E
:10145E008490C350120D8412380080FE227E007FCD
:10146E00003002200EBE00010F900005C007C0061E
:10147E00120D84D006D007C3EE9450EF94C340E112
:10148E007582002275820122753900900163E06039
:10149E000375390185398222200225900164E0FF0F
:1014AE00601E8FD553D4FCD202BF400F12146BE5D1
:1014BE0082600875D50053D4FCD202900164E4F02A
:1014CE0022AF82900163E06041C00712146BE58287
:1014DE00D0077003F58222900164E0FEBE400050FA
:1014EE00207D0074402EFEE43DFDEE2414F582EDC9
:1014FE003400F583EFF0900164E02401F075820171
:10150E0022C0071214A6D00780BF75820022AFF04A
:10151E00AE83E582900108F0EEA3F0EFA3F0900108
:10152E0063E070030215D2900106E0FEA3E0FFC354
:10153E00E49E74808FF063F08095F040030215D224
:10154E00C007C00612146BE582D006D0077003F5F3
:10155E008222900108E0FBA3E0FCA3E0FDC3E49E21
:10156E0074808FF063F08095F050BC900164E0FAC7
:10157E00BA400050498A017A00744029F9E43AFAD7
:10158E00E92414F9EA3400FA8B828C838DF0121759
:10159E00FAF8A3AB82AC83900108EBF0ECA3F0ED6C
:1015AE00A3F089828A83E8F0900164E02401F01EA2
:1015BE00BEFF011F900106EEF0EFA3F0809F121404
:1015CE00A602153575820022900161E0F582229007
:1015DE000161E07003F58222900162E02414F5822D
:1015EE00E43400F583E0FF900162E004F0900161C5
:1015FE00E014F0E0700353D4F38F822275D500749B
:10160E00FC55D44402F5D4C2022230DE1990016199
:10161E00E5DBF0900162E4F0900161E0600874F3A4
:07162E0055D44408F5D42255
:10163600C01C85811CAC82AD83AEF0FF05817B00AA
:10164600A81C087600E51C24FAF8080808E62354C6
:1016560001FA704CE51C24FAF8E626F608E633F69D
:1016660008E633F608E633F6E51C24FAF8C3EC96EA
:10167600ED0896EE0896EF0896501AE51C24FAF83F
:10168600080808E6C313F618E613F618E613F61864
:10169600E613F6800BA81C0806A81C08860380A57E
:1016A600E51C24FAF8C3EC96ED0896EE0896EF08CA
:1016B600964015E51C24FAF8ECC396FCED0896FD59
:1016C600EE0896FEEF0896FFE51C24FAF8080808CF
:1016D600E6C313F618E613F618E613F618E613F63D
:1016E6008B021BEA70BA8C828D838EF0EF1581D047
:1016F6001C22C01C85811CC082C083C0F0C0E07A59
:10170600007B007E007F007D20A81C08080808E6F4
:10171600235401FCA81C08E626F608E633F608E67C
:1017260033F608E633F6EA2AFAEB33FBEE33FEEF3E
:1017360033FFEC6003430201E51C24FAF8C3EA9682
:10174600EB0896EE0896EF0896401CE51C24FAF87E
:10175600EAC396FAEB0896FBEE0896FEEF0896FFAC
:10176600A81C08E64401F6DDA0A81C0886820886A7
:0C177600830886F008E6851C81D01C2248
:1017820022AF82BF0200503EEF75F002A42465FD35
:10179200740135F0FE90010BE0FBA3E0FC8D828E1C
:1017A20083EBF0ECA3F0BF00028005BF0118800BB1
:1017B20090010DE024FF9288D2A82290010DE0FF53
:1017C20024FF928AD2AA22AF82BF02005028BF0011
:1017D200028005BF01088004C2A88002C2AAEF7578
:1017E200F002A42465FE740135F0FF8E828F8374AB
:0717F20082F07417A3F0223E
:1017FA0020F71430F6148883A88220F507E6A88318
:0C180A0075830022E280F7E49322E022C4
:10181600900169E0FF7E000FBF00010E7410C0E06A
:10182600E4C0E08F828E83121936AE82158115814F
:1018360090016AE0FFEEB5070122900169E0240EEF
:10184600F582E43401F583E599F0900169EEF02222
:1018560030044A90016BE0FF90016CE0FEEFB506A4
:1018660005A204C2042290016CE0241EF582E43431
:1018760001F583E0F59990016CE0FF7E000FBF0053
:10188600010E7410C0E0E4C0E08F828E8312193618
:0E189600AE82AF831581158190016CEEF022B9
:1018A40090016DE0FF7E000FBF00010E7410C0E0D8
:1018B400E4C0E08F828E83121936AE8215811581C1
:1018C40090016EE0FFEEB507012290016DE0242E39
:1018D400F582E43401F583E5C1F090016DEEF02268
:1018E40030054A90016FE0FF900170E0FEEFB5060D
:1018F40005A205C20522900170E0243EF582E4347D
:1019040001F583E0F5C1900170E0FF7E000FBF0098
:10191400010E7410C0E0E4C0E08F828E8312193689
:0E192400AE82AF8315811581900170EEF02226
:1019320075820022C01C85811CAE82E583FF33E4E0
:1019420033FD6009C3E49EFBE49FFC80048E038F99
:1019520004E51C24FCF808E630E70FE51C24FCF83B
:10196200C3E496FE08E496FF800AE51C24FCF88690
:1019720006088607C005C006C0078B828C83121931
:10198200A4AE82AF8315811581D005ED600DC3E44D
:101992009EFCE49FFD8C828D8380048E828F83D097
:1019A2001C22C01C85811CAE82AF837D007C00E5B9
:1019B2001C24FCF808E6235401FB702FE51C24FCD0
:1019C200F8E626F608E633F6E51C24FCF8C3EE96A4
:1019D200EF08965011E51C24FCF808E618C313C65C
:1019E20013C608F680050C8C0580C4E51C24FCF89F
:1019F200C3EE96EF0896400DE51C24FCF8EEC39664
:101A0200FEEF0896FFE51C24FCF808E618C313C68F
:101A120013C608F68D041DEC70D18E828F83D01C04
:011A220022A1
:101A2300515420507920434835353220436170208A
:101A3300546F756368205465737400557365732020
:101A430070696E204130202850312E3129005449CD
:101A53004E312E3120746F756368656420002074E5
:051A6300696D657300D0
:101A680012011001EF020108091250C5010101021B
:101A78000301090246000201008064080B0002020B
:101A880002010409040000010202010405240010F7
:101A98000104240202052406000107058103080049
:101AA8004009040100020A00000407050202400080
:101AB8000007058202400000040309040C034300E8
:101AC800480035003500780016034300480035000B
:101AD800350078006400750069006E006F00160319
:101AE8004300440043002000530065007200690071
:101AF80061006C000E0344006500710069006E000F
:021B0800670074
:041B0A0017080000B8
:061B0E00000000000000D1
:021B14000000CF
:0B1B160000E1000000000800000000DB
:041B2100821782178E
:041B250000000000BC
:041B290000000000B8
:00000001FF
