:040000000200B63212
:03000B0002012DC2
:0100130032BA
:01001B0032B2
:0100230032AA
:01002B0032A2
:01003300329A
:01003B003292
:030043000200ECCC
:100048000000E2FBEAF2802C0000E0FBEAF08024EA
:10005800E6B50202EBF62200E2B50202EBF222005C
:10006800E0B50202EBF02230F6E0A88220F5D3EAF0
:10007800C6F582228B822230F6E6A88220F5D98046
:01008800CFA8
:0900C900E4F50AF50BD200C201B6
:0300E90002008989
:0300890002014E23
:1000EC00C021C0E0C0F0C082C083C007C006C005FC
:1000FC00C004C003C002C001C000C0D075D0001243
:10010C0004F7D0D0D000D001D002D003D004D00559
:10011C00D006D007D083D082D0F0D0E0D02102001E
:10012C008CC0E0C007C006C0D075D000AE0AAF0BC3
:10013C0074012EF50AE43FF50BD0D0D006D007D0D1
:10014C00E03275A15575A1AA53B9F843B90675A14A
:10015C000090000A1206411206CE9001F4120641DC
:10016C00E5C354F84407F5C35393EF5392EF5396FA
:10017C00FB439704758901758CFC758A18D2A9D23A
:10018C008CD2AF30002CD2B2AE0AAF0BBE1E23BF46
:10019C00002030010D751500758203120698B2010E
:1001AC00800B7515007582FD120698B201E4F50AF4
:1001BC00F50B200007C2B2E4F50AF50B75820212AA
:0A01CC000807E58270BDB20080B99B
:10096D001201100100000008C016DA270001010273
:10097D000301090222000101008019090400000190
:10098D000301020409211101000122340007058130
:10099D000308000A05010902A1010901A1000509C9
:1009AD0019012903150025017501950381027505AE
:1009BD009501810305010930093109381581257F1C
:1009CD00750895038106C0C0340403090418037724
:1009DD00006100670069006D0069006E00610074C0
:1009ED00006F0072001A034D006F007500730065F3
:1009FD000057006900670067006C00650072000E0B
:100A0D00034300480035003500320045001403480B
:100A1D0000490044002D004D006F00750073006506
:010A2D0000C8
:1001D600C007AF8205A290000015A2851082851186
:1001E60083E493A3A5DFFAD00722AFDBBF08028022
:1001F60003020474900007E0FE7F00900006E0FD15
:100206007C004FF50CEC4EF50D900001E0F50E90DC
:100216000000E0FE546060057FFF020476E50E24D0
:10022600F45003020470E50E240B83F582E50E24D8
:100236001083F583E473527370D0704354704F6A21
:100246007676040304030403020403030404900003
:1002560003E0FEBE01028012BE02028017BE030248
:10026600801CBE220280690202EE75106D751109AE
:100276007F12807675107F7511097F22806C900041
:1002860002E0FE24FB4038EE2E9002937380088035
:100296000E8014801A80207510D675110980267577
:1002A60010DA751109801E7510F275110980167520
:1002B600100C75110A800E75101A75110A800675D4
:1002C600100C75110A851082851183E493FF801A3C
:1002D600900002E0700E7510A17511099009D5E421
:1002E60093FF80067FFF80027FFFBFFF0302047635
:1002F6008F057E00C3ED950CEE950D50048D0C8E8A
:100306000DAD0CAE0DC3ED9408EE940092024004C0
:100316007D088002AD0C8D078F821201D68F06AC48
:100326000CAD0D7B00ECC39EFCED9BFD8C0C8D0D86
:10033600EF2510F510E43511F51102047690000250
:10034600E0F50C750D00020476900000E50FF0ADA7
:100356000CAE0DC3ED9401EE940050030204767FBB
:1003660001020476900002E0F50F02047690000088
:10037600E0541F702D900003E0FD7E00900002E027
:100386007B004206EB4205BE0113BD0010900986B4
:10039600E49330E5030204767FFF0204767FFF02D2
:1003A6000476900000E0FE53061FBE02189000047B
:1003B600E0FEBE810B74BC55D24402F5D20204762F
:1003C6007FFF0204767FFF020476900000E0541F50
:1003D600702B900003E0FD7E00900002E07B00425F
:1003E60006EB4205BE0112BD000F900986E493306C
:1003F600E5030204767FFF80777FFF80739000001D
:10040600E0FE53061FBE0240900003E0FD7E009012
:100416000002E07B004206EB4205EE4D702690009E
:1004260005E0FD7E00900004E07B004206EB4205FD
:10043600BE810DBD000A74BF55D24403F5D280308B
:100446007FFF802C7FFF80287FFF8024900000E4C0
:10045600F0900001F0AD0CAE0DC3ED9402EE9400E9
:1004660040047F02800AAF0C80067FFF80027FFF78
:10047600BFFF07750EFF75DCCF22EF24F740068F0E
:10048600DD75DCC02275DD0075DCC0227405B50E95
:100496000280427406B50E4BAE0CAF0DC3EE940847
:1004A600EF9400920340047E088002AE0C8E821206
:1004B60001D68E07AC0CAD0D7B00ECC39FFCED9B0B
:1004C600FD8C0C8D0DEE2510F510E43511F5118E11
:1004D600DD63DC4022E5E35480FFE50C4FF5E37570
:1004E600DC022275DD0075DC022275DD0043DC02CC
:1004F6002230D942E5D9540FFFAED9530630BE009B
:1005060002800FBE1002802CBE2002800DBE302459
:10051600801CBF001F1204F0801ABF00028005BFB6
:1005260001128005120492800B1207198006BF0083
:10053600031201F0C2D930D80F75DC021207137509
:10054600E300C2DAC2D9C2D810DA0122E5DA20E223
:100556000375D8FF2275E22975D181E4F5ECF5ED36
:1005660075DC0212070643E10743D81FD2EAD2AF71
:1005760075DD00227F08C58233D2B292B200000038
:100586000000000000000000C2B2000000000000F1
:10059600DFE622AF82C2AF851282C00712057AD08B
:1005A600078F8212057A85138212057AD2AF22E569
:1005B60082FF23235403FE743F5F8514F005F08009
:1005C6000225E0D5F0FBFF8514F005F0743F8002AC
:1005D60025E0D5F0FB8F04C39CFDBE0002800ABE59
:1005E6000102800FBE022080148F127513008D82C7
:1005F6000205998D128F13758200020599751200F6
:100606008D138F8202059922AE82AF83EE4F602A48
:10061600E5A104F5A1E5A104F5A1E5A104F5A1E58F
:10062600A104F5A1E5A104F5A1E5A104F5A1E5A1C3
:1006360004F5A11EBEFF011F80D222AE82AF83EE5B
:100646004F60159003E8C007C00612060ED006D00C
:09065600071EBEFF011F80E72210
:09066000C007AF82DFFED00722C3
:1000D200900100E4F0900101F0900102F090010320
:0100E200F02D
:10066900AF82900100E04207900100EFF075160497
:100679009001000206D5AF82900100E0FEEFF4522E
:1006890006900100EEF07516049001000206D5AF40
:1006990082900101EFF0900102E515F075160490C2
:1006A90001001206D5900101E4F0900102F022AF99
:1006B90082900103EFF07516049001001206D5909F
:0506C9000103E4F02232
:0200E300C20455
:1006CE0012055B75D30022AE82AF832004FD7D0040
:1006DE00C3ED95165019ED240AFBE43400FCED2E03
:1006EE00F582E43FF583E08B828C83F00D80E1850B
:1006FE0016D3D20453D2FC2275EE0A75EF0075D2D2
:10070E001275EA402275D212C2042275D30074FC0F
:09071E0055D24402F5D2C20422B6
:0400E500782D76FFFD
:10072700AF82AEC35306F8EF4E04F5C3AEC37F00E6
:10073700EEF4FEEFF4EE20E7F385C48285C583224D
:10074700E582F52224F750037522087E00C3EE9553
:1007570022400122E4F523F524F525F526FF8E82B4
:10076700C007C006120727AC82AD83D006D0078C1E
:10077700028D03E4FCFDEA2523F523EB3524F5245C
:10078700EC3525F525ED3526F5260FBF080040CEBB
:10079700EE2E242EF9AB23E524C423CBC423541F08
:1007A7006BCB541FCB6BCBFCE525C42354E04CFC2F
:1007B700AD25E526C423CDC423541F6DCD541FCDCD
:1007C7006DCDA70309A704190E020754E582FF247C
:1007D700F750027F087E00C3EE9F5023EE2E242E93
:1007E700F98E82C007C006C001120727E5828583FC
:1007F700F0D001D006D007F709A7F0190E80D8224C
:1008070085822712072785822885832974F825275B
:1008170050738527F005F07B017C008006EB2BFBEE
:10082700EC33FCD5F0F7782D86027E00EA5203EE12
:100837005204EB4C6028AD28AE29C374A09D740FF9
:100847009E50178527F005F07401800225E0D5F04A
:10085700FBF4782D56F67582022275820122AD28A7
:10086700AE29C3ED9410EE940E50168527F005F0CF
:100877007401800225E0D5F0FB782D46F6758200DD
:1008870022758203228527F005F07D017E00800610
:10089700ED2DFDEE33FED5F0F7782D86037C00EBCA
:1008A7005205EC5206ED4E6043AC28AD297E00742C
:1008B700A02CFC740F3DFDE43EFEE5272527242EE2
:1008C700F987020987037F00C3EA9CEB9DEF9E50DF
:1008D700178527F005F07401800225E0D5F0FBF4B9
:1008E700782D56F67582022275820122AD28AE292F
:1008F7007F0074102DF52A740E3EF52BE43FF52C7E
:10090700E5272527242EF98703098704198B028CED
:1009170006C3E52A9AE52B9EE52C9F50168527F0FE
:1009270005F07401800225E0D5F0FB782D46F675B9
:10093700820022AD28AE298B028C07EDC39AFDEE0B
:100947009FC4CDC4540F6DCD540FCD6DCD30E30290
:1009570044F0FEED2BFBEE3CFCA70309A7047582D0
:02096700032269
:0600C300E478FFF6D8FD11
:10008C00C000A88118C0D0B6001B18B64800401597
:10009C00B66F005010C0E0E65407B406005004E6FA
:1000AC0054F8F6D0E0D0D0D0003275813D120969F9
:0700BC00E5826003020089E8
:040969007582002271
:00000001FF
